{
  "transactions": [
    {
      "hash": "0x596ba202d82814ad2363d3579b1073e367fed6dd0ee9f40ac54e6de625467e7f",
      "transactionType": "CREATE",
      "contractName": "SimpleSwapRouter",
      "contractAddress": "0x02cb315aa9189604204ffaa61a7fb5c05fd0ca2a",
      "function": null,
      "arguments": [
        "0x498581fF718922c3f8e6A244956aF099B2652b2b"
      ],
      "transaction": {
        "from": "0x493c17e3fbad6667b70105ceb90b9225c29c1235",
        "gas": "0xd430b",
        "value": "0x0",
        "input": "0x60a034607257601f610ba238819003918201601f19168301916001600160401b03831184841017607657808492602094604052833981010312607257516001600160a01b0381168103607257608052604051610b17908161008b823960805181818160540152818160d901526108790152f35b5f80fd5b634e487b7160e01b5f52604160045260245ffdfe6080806040526004361015610012575f80fd5b5f905f3560e01c9081631e2817de146106f95750806391dd7346146100865763bf12fd101461003f575f80fd5b346100835780600319360112610083576040517f00000000000000000000000000000000000000000000000000000000000000006001600160a01b03168152602090f35b80fd5b503461069c57602036600319011261069c576004359067ffffffffffffffff821161069c573660238301121561069c57816004013567ffffffffffffffff811161069c5782019136602484011161069c577f0000000000000000000000000000000000000000000000000000000000000000926001600160a01b038416338190036106ca576101208383031261069c576040519161012383610969565b60a08482031261069c576040519061013a82610985565b610146602486016109c3565b8252610154604486016109c3565b6020830152606485013562ffffff8116810361069c57604083015260848501358060020b810361069c57606083015260a4850135906001600160a01b038216820361069c57826024926080606095015285528560c319910301011261069c57604051916101c083610969565b60c4840135801515810361069c57835260e48401356020840152610104840135936001600160a01b038516850361069c5761012461020d9161024e966040870152856020850152016109c3565b92604082019384528151602095869161028960405161022c85826109a1565b5f81526102756040519687958695633cf3645360e21b875260048701906109d7565b8051151560a4860152602081015160c4860152604001516001600160a01b031660e4850152565b610120610104840152610124830190610945565b03815f875af18015610691576106a0575b508051516102cc906102b6906001600160a01b03163089610a65565b9660018060a01b03868451015116903090610a65565b5f87121561060d576102e18697969596610a1a565b8251516001600160a01b0316843b156106095760405190632961046560e21b82526004820152868160248183895af180156105fe57889188916105e5575b505083515186516040516323b872dd60e01b81526001600160a01b03918216600482015287821660248201526044810194909452839160649183918b91165af180156104fd576105ca575b50604051630476982d60e21b8152868160048189885af180156104fd576105ad575b505b8481121561050c5761039f90610a1a565b81518601516001600160a01b031691833b156105085760405192632961046560e21b84526004840152858360248183885af19081156104fd57879387926104df575b505183015194516040516323b872dd60e01b81526001600160a01b039182166004820152858216602482015260448101939093529194859260649284929091165af19182156104a95784926104b4575b50600460405180948193630476982d60e21b83525af180156104a95761047c575b505b6040519161046282846109a1565b8252610478604051928284938452830190610945565b0390f35b61049b90823d84116104a2575b61049381836109a1565b810190610a56565b505f610452565b503d610489565b6040513d85823e3d90fd5b6104d390833d85116104d8575b6104cb81836109a1565b810190610a3e565b610431565b503d6104c1565b6104ec91945082906109a1565b6104f9578486925f6103e1565b8480fd5b6040513d88823e3d90fd5b8580fd5b90848294939413610522575b5050505050610454565b5185015191516001600160a01b0390811693921691803b156104f957604051630b0d9c0960e01b81526001600160a01b039384166004820152939092166024840152604483015282908290606490829084905af180156105a257610589575b808080610518565b81610593916109a1565b61059e57815f610581565b5080fd5b6040513d84823e3d90fd5b6105c390873d89116104a25761049381836109a1565b505f61038c565b6105e090873d89116104d8576104cb81836109a1565b61036a565b819250906105f2916109a1565b6105085786865f61031f565b6040513d89823e3d90fd5b8680fd5b5f8713610620575b85965094939461038e565b81515184516001600160a01b039182169116843b1561069c57604051630b0d9c0960e01b81526001600160a01b0392831660048201529116602482015260448101979097525f8760648183875af18015610691571561061557939450945f610687916109a1565b5f93928590610615565b6040513d5f823e3d90fd5b5f80fd5b8481813d83116106c3575b6106b581836109a1565b8101031261069c575161029a565b503d6106ab565b60405162461bcd60e51b81526020600482015260076024820152666f6e6c7920504d60c81b6044820152606490fd5b3461069c573660031901610100811261069c5760a01361069c5760603660a319011261069c5761072881610969565b60405161073481610985565b6004356001600160a01b038116810361069c5781526024356001600160a01b038116810361069c57602082015260443562ffffff8116810361069c5760408201526064358060020b810361069c5760608201526084356001600160a01b038116810361069c5760808201528152604051906107ae82610969565b60a435801515810361069c57825260c435602083015260e435906001600160a01b038216820361069c57825f926040610874950152602082019081526108306040830191338352610807604051946020860190516109d7565b518051151560c0850152602081015160e0850152604001516001600160a01b0316610100840152565b516001600160a01b0316610120828101919091528152610852610140826109a1565b604051809381926348c8949160e01b8352602060048401526024830190610945565b0381837f00000000000000000000000000000000000000000000000000000000000000006001600160a01b03165af18015610691576108af57005b3d805f833e6108be81836109a1565b81019060208183031261069c5780519067ffffffffffffffff821161069c570181601f8201121561069c57805167ffffffffffffffff81116109315760405192610912601f8301601f1916602001856109a1565b8184526020828401011161069c575f928160208094018483015e010152005b634e487b7160e01b5f52604160045260245ffd5b805180835260209291819084018484015e5f828201840152601f01601f1916010190565b6060810190811067ffffffffffffffff82111761093157604052565b60a0810190811067ffffffffffffffff82111761093157604052565b90601f8019910116810190811067ffffffffffffffff82111761093157604052565b35906001600160a01b038216820361069c57565b80516001600160a01b03908116835260208083015182169084015260408083015162ffffff169084015260608083015160020b9084015260809182015116910152565b600160ff1b8114610a2a575f0390565b634e487b7160e01b5f52601160045260245ffd5b9081602091031261069c5751801515810361069c5790565b9081602091031261069c575190565b6001600160a01b039182165f9081529282166020908152604093849020935163789add5560e11b815260048101949094529183916024918391165afa908115610691575f91610ab2575090565b90506020813d602011610ad9575b81610acd602093836109a1565b8101031261069c575190565b3d9150610ac056fea26469706673582212203cfd963101d5def049ac1cb704ff385f51c3e2db55e499aeb73bf37adabeba0a64736f6c634300081a0033000000000000000000000000498581ff718922c3f8e6a244956af099b2652b2b",
        "nonce": "0x9",
        "chainId": "0x2105"
      },
      "additionalContracts": [],
      "isFixedGasLimit": false
    },
    {
      "hash": "0xba6f1e94755f328dbde8a7671fb24228c2db7f53f07cb093835f9415beb28345",
      "transactionType": "CALL",
      "contractName": null,
      "contractAddress": "0xccfaf7e2c4c46064af5df6db6a22a377a2d10188",
      "function": "addBot(address)",
      "arguments": [
        "0x6a806C5F25b145065BeFd19bFfa6242b3fB3B1e0"
      ],
      "transaction": {
        "from": "0x493c17e3fbad6667b70105ceb90b9225c29c1235",
        "to": "0xccfaf7e2c4c46064af5df6db6a22a377a2d10188",
        "gas": "0x100cd",
        "value": "0x0",
        "input": "0xffecf5160000000000000000000000006a806c5f25b145065befd19bffa6242b3fb3b1e0",
        "nonce": "0xa",
        "chainId": "0x2105"
      },
      "additionalContracts": [],
      "isFixedGasLimit": false
    },
    {
      "hash": "0x3912559cf686f579ce72f14523323d3c0a0e6c06a34a074fbe29b802d556e71e",
      "transactionType": "CALL",
      "contractName": null,
      "contractAddress": "0xccfaf7e2c4c46064af5df6db6a22a377a2d10188",
      "function": "addBot(address)",
      "arguments": [
        "0xBc8cB435479ED1Ea8aca81EAC268ef46f8F30B01"
      ],
      "transaction": {
        "from": "0x493c17e3fbad6667b70105ceb90b9225c29c1235",
        "to": "0xccfaf7e2c4c46064af5df6db6a22a377a2d10188",
        "gas": "0x100cd",
        "value": "0x0",
        "input": "0xffecf516000000000000000000000000bc8cb435479ed1ea8aca81eac268ef46f8f30b01",
        "nonce": "0xb",
        "chainId": "0x2105"
      },
      "additionalContracts": [],
      "isFixedGasLimit": false
    },
    {
      "hash": "0x3b0e9c132906a807dd4600de09a99ace3c53cb4ab8bb2f67c4ff277e9e22b48c",
      "transactionType": "CALL",
      "contractName": null,
      "contractAddress": "0xccfaf7e2c4c46064af5df6db6a22a377a2d10188",
      "function": "addBot(address)",
      "arguments": [
        "0x02cb315Aa9189604204FfaA61A7fB5C05Fd0cA2a"
      ],
      "transaction": {
        "from": "0x493c17e3fbad6667b70105ceb90b9225c29c1235",
        "to": "0xccfaf7e2c4c46064af5df6db6a22a377a2d10188",
        "gas": "0x100cd",
        "value": "0x0",
        "input": "0xffecf51600000000000000000000000002cb315aa9189604204ffaa61a7fb5c05fd0ca2a",
        "nonce": "0xc",
        "chainId": "0x2105"
      },
      "additionalContracts": [],
      "isFixedGasLimit": false
    },
    {
      "hash": "0xf5b7840fe19e4b5c81581fee45d25d0fb561c23750806ba5d20694ff365210a2",
      "transactionType": "CALL",
      "contractName": null,
      "contractAddress": "0x498581ff718922c3f8e6a244956af099b2652b2b",
      "function": "initialize((address,address,uint24,int24,address),uint160)",
      "arguments": [
        "(0x4200000000000000000000000000000000000006, 0x833589fCD6eDb6E08f4c7C32D4f71b54bdA02913, 3000, 60, 0xcCFAf7E2c4C46064aF5Df6dB6a22A377a2d10188)",
        "3961408125713216879677198"
      ],
      "transaction": {
        "from": "0x493c17e3fbad6667b70105ceb90b9225c29c1235",
        "to": "0x498581ff718922c3f8e6a244956af099b2652b2b",
        "gas": "0x128f0",
        "value": "0x0",
        "input": "0x6276cbbe0000000000000000000000004200000000000000000000000000000000000006000000000000000000000000833589fcd6edb6e08f4c7c32d4f71b54bda029130000000000000000000000000000000000000000000000000000000000000bb8000000000000000000000000000000000000000000000000000000000000003c000000000000000000000000ccfaf7e2c4c46064af5df6db6a22a377a2d101880000000000000000000000000000000000000000000346dc5d63886594af4f0e",
        "nonce": "0xd",
        "chainId": "0x2105"
      },
      "additionalContracts": [],
      "isFixedGasLimit": false
    },
    {
      "hash": "0x68774180734f520d773bbae9ad5c5a738e3fb89178ef70e1b95ee9c782742938",
      "transactionType": "CALL",
      "contractName": null,
      "contractAddress": "0x833589fcd6edb6e08f4c7c32d4f71b54bda02913",
      "function": "approve(address,uint256)",
      "arguments": [
        "0xcCFAf7E2c4C46064aF5Df6dB6a22A377a2d10188",
        "115792089237316195423570985008687907853269984665640564039457584007913129639935"
      ],
      "transaction": {
        "from": "0x6a806c5f25b145065befd19bffa6242b3fb3b1e0",
        "to": "0x833589fcd6edb6e08f4c7c32d4f71b54bda02913",
        "gas": "0x13eb1",
        "value": "0x0",
        "input": "0x095ea7b3000000000000000000000000ccfaf7e2c4c46064af5df6db6a22a377a2d10188ffffffffffffffffffffffffffffffffffffffffffffffffffffffffffffffff",
        "nonce": "0x0",
        "chainId": "0x2105"
      },
      "additionalContracts": [],
      "isFixedGasLimit": false
    },
    {
      "hash": "0x0b11d92da0385b424d599eea41bc6d38f1830ec617d79817a01bcaf649c5afe8",
      "transactionType": "CALL",
      "contractName": null,
      "contractAddress": "0xccfaf7e2c4c46064af5df6db6a22a377a2d10188",
      "function": "postOrder((address,address,uint24,int24,address),bool,uint128,uint128,uint256)",
      "arguments": [
        "(0x4200000000000000000000000000000000000006, 0x833589fCD6eDb6E08f4c7C32D4f71b54bdA02913, 3000, 60, 0xcCFAf7E2c4C46064aF5Df6dB6a22A377a2d10188)",
        "false",
        "5000000",
        "1000000000000000",
        "3600"
      ],
      "transaction": {
        "from": "0x6a806c5f25b145065befd19bffa6242b3fb3b1e0",
        "to": "0xccfaf7e2c4c46064af5df6db6a22a377a2d10188",
        "gas": "0x4fd09",
        "value": "0x0",
        "input": "0xc0ffd5e30000000000000000000000004200000000000000000000000000000000000006000000000000000000000000833589fcd6edb6e08f4c7c32d4f71b54bda029130000000000000000000000000000000000000000000000000000000000000bb8000000000000000000000000000000000000000000000000000000000000003c000000000000000000000000ccfaf7e2c4c46064af5df6db6a22a377a2d10188000000000000000000000000000000000000000000000000000000000000000000000000000000000000000000000000000000000000000000000000004c4b4000000000000000000000000000000000000000000000000000038d7ea4c680000000000000000000000000000000000000000000000000000000000000000e10",
        "nonce": "0x1",
        "chainId": "0x2105"
      },
      "additionalContracts": [],
      "isFixedGasLimit": false
    },
    {
      "hash": "0x93ea38f4b8bdad66df7b0b3bdabc5a86a37118166b179304a67f9dc8aa7ef86e",
      "transactionType": "CALL",
      "contractName": null,
      "contractAddress": "0x4200000000000000000000000000000000000006",
      "function": "deposit()",
      "arguments": [],
      "transaction": {
        "from": "0xbc8cb435479ed1ea8aca81eac268ef46f8f30b01",
        "to": "0x4200000000000000000000000000000000000006",
        "gas": "0x10050",
        "value": "0x11c37937e08000",
        "input": "0xd0e30db0",
        "nonce": "0x0",
        "chainId": "0x2105"
      },
      "additionalContracts": [],
      "isFixedGasLimit": false
    },
    {
      "hash": "0xaaa1918fcdf4319fa36daabecb2c4ead8c4ea435b3528ac6030330b3ab3d9ff5",
      "transactionType": "CALL",
      "contractName": null,
      "contractAddress": "0x4200000000000000000000000000000000000006",
      "function": "approve(address,uint256)",
      "arguments": [
        "0x02cb315Aa9189604204FfaA61A7fB5C05Fd0cA2a",
        "115792089237316195423570985008687907853269984665640564039457584007913129639935"
      ],
      "transaction": {
        "from": "0xbc8cb435479ed1ea8aca81eac268ef46f8f30b01",
        "to": "0x4200000000000000000000000000000000000006",
        "gas": "0xfa0a",
        "value": "0x0",
        "input": "0x095ea7b300000000000000000000000002cb315aa9189604204ffaa61a7fb5c05fd0ca2affffffffffffffffffffffffffffffffffffffffffffffffffffffffffffffff",
        "nonce": "0x1",
        "chainId": "0x2105"
      },
      "additionalContracts": [],
      "isFixedGasLimit": false
    },
    {
      "hash": "0x1dc3ae3a57996c922bfd097595dbeeb2245518cf4cf3c17b6d89ac69667d0739",
      "transactionType": "CALL",
      "contractName": "SimpleSwapRouter",
      "contractAddress": "0x02cb315aa9189604204ffaa61a7fb5c05fd0ca2a",
      "function": "swap((address,address,uint24,int24,address),(bool,int256,uint160))",
      "arguments": [
        "(0x4200000000000000000000000000000000000006, 0x833589fCD6eDb6E08f4c7C32D4f71b54bdA02913, 3000, 60, 0xcCFAf7E2c4C46064aF5Df6dB6a22A377a2d10188)",
        "(true, -2000000000000000, 4295128740)"
      ],
      "transaction": {
        "from": "0xbc8cb435479ed1ea8aca81eac268ef46f8f30b01",
        "to": "0x02cb315aa9189604204ffaa61a7fb5c05fd0ca2a",
        "gas": "0x3ac33",
        "value": "0x0",
        "input": "0x1e2817de0000000000000000000000004200000000000000000000000000000000000006000000000000000000000000833589fcd6edb6e08f4c7c32d4f71b54bda029130000000000000000000000000000000000000000000000000000000000000bb8000000000000000000000000000000000000000000000000000000000000003c000000000000000000000000ccfaf7e2c4c46064af5df6db6a22a377a2d101880000000000000000000000000000000000000000000000000000000000000001fffffffffffffffffffffffffffffffffffffffffffffffffff8e502b673000000000000000000000000000000000000000000000000000000000001000276a4",
        "nonce": "0x2",
        "chainId": "0x2105"
      },
      "additionalContracts": [],
      "isFixedGasLimit": false
    }
  ],
  "receipts": [
    {
      "status": "0x1",
      "cumulativeGasUsed": "0x2c8b2ea",
      "logs": [],
      "logsBloom": "0x00000000000000000000000000000000000000000000000000000000000000000000000000000000000000000000000000000000000000000000000000000000000000000000000000000000000000000000000000000000000000000000000000000000000000000000000000000000000000000000000000000000000000000000000000000000000000000000000000000000000000000000000000000000000000000000000000000000000000000000000000000000000000000000000000000000000000000000000000000000000000000000000000000000000000000000000000000000000000000000000000000000000000000000000000000000",
      "type": "0x2",
      "transactionHash": "0x596ba202d82814ad2363d3579b1073e367fed6dd0ee9f40ac54e6de625467e7f",
      "transactionIndex": "0x96",
      "blockHash": "0x0000000000000000000000000000000000000000000000000000000000000000",
      "blockNumber": "0x27eb66d",
      "gasUsed": "0xa3393",
      "effectiveGasPrice": "0x3a0bda",
      "blobGasUsed": "0x40120",
      "from": "0x493c17e3fbad6667b70105ceb90b9225c29c1235",
      "to": null,
      "contractAddress": "0x02cb315aa9189604204ffaa61a7fb5c05fd0ca2a",
      "daFootprintGasScalar": "0x8b",
      "l1BaseFeeScalar": "0x8dd",
      "l1BlobBaseFee": "0x3eee88",
      "l1BlobBaseFeeScalar": "0x101c12",
      "l1Fee": "0x630ed228",
      "l1GasPrice": "0x3de18f3",
      "l1GasUsed": "0x7600"
    },
    {
      "status": "0x1",
      "cumulativeGasUsed": "0x28016f0",
      "logs": [
        {
          "address": "0xccfaf7e2c4c46064af5df6db6a22a377a2d10188",
          "topics": [
            "0x8ea6dd825d4c0cbaa8c5f268c15b1df21173aae98f549a108b836de11d4971d8",
            "0x0000000000000000000000006a806c5f25b145065befd19bffa6242b3fb3b1e0"
          ],
          "data": "0x",
          "blockHash": "0x0000000000000000000000000000000000000000000000000000000000000000",
          "blockNumber": "0x27eb66e",
          "blockTimestamp": "0x6987c9bf",
          "transactionHash": "0xba6f1e94755f328dbde8a7671fb24228c2db7f53f07cb093835f9415beb28345",
          "transactionIndex": "0x8e",
          "logIndex": "0x262",
          "removed": false
        }
      ],
      "logsBloom": "0x00000000000000000000000000000000000000000000000000000000000000000000000000000000000000000000000000000000000000000000000000000000000040000000000000000000000000000000000000000000000000000000000000000000000000000001000000000000000000000010000000000000000000000000000000000002000000000000000000000000000000000000000000000000000000020000000000000000000000000000000000000000000000000000000000000000800000000000000000000000000000000000000000000000000000000000000000001000002000000000020000000000000000000000000000000000",
      "type": "0x2",
      "transactionHash": "0xba6f1e94755f328dbde8a7671fb24228c2db7f53f07cb093835f9415beb28345",
      "transactionIndex": "0x8e",
      "blockHash": "0x0000000000000000000000000000000000000000000000000000000000000000",
      "blockNumber": "0x27eb66e",
      "gasUsed": "0xb9ec",
      "effectiveGasPrice": "0x3a060c",
      "blobGasUsed": "0x364c",
      "from": "0x493c17e3fbad6667b70105ceb90b9225c29c1235",
      "to": "0xccfaf7e2c4c46064af5df6db6a22a377a2d10188",
      "contractAddress": null,
      "daFootprintGasScalar": "0x8b",
      "l1BaseFeeScalar": "0x8dd",
      "l1BlobBaseFee": "0x3eee88",
      "l1BlobBaseFeeScalar": "0x101c12",
      "l1Fee": "0x27fe8bd2",
      "l1GasPrice": "0x3de18f3",
      "l1GasUsed": "0x640"
    },
    {
      "status": "0x1",
      "cumulativeGasUsed": "0x1b37863",
      "logs": [
        {
          "address": "0xccfaf7e2c4c46064af5df6db6a22a377a2d10188",
          "topics": [
            "0x8ea6dd825d4c0cbaa8c5f268c15b1df21173aae98f549a108b836de11d4971d8",
            "0x000000000000000000000000bc8cb435479ed1ea8aca81eac268ef46f8f30b01"
          ],
          "data": "0x",
          "blockHash": "0xbd2b140c3fd9b1d0c0eadf7078dc769e9335ea6bb3e1b22349e2d12f6db11a81",
          "blockNumber": "0x27eb66f",
          "blockTimestamp": "0x6987c9c1",
          "transactionHash": "0x3912559cf686f579ce72f14523323d3c0a0e6c06a34a074fbe29b802d556e71e",
          "transactionIndex": "0x72",
          "logIndex": "0x3ff",
          "removed": false
        }
      ],
      "logsBloom": "0x00000000000000000000000000000000000000000000000000000000000000000000000000000000000000000000000000000000000000000000000000000000004000000000000000000000000000000000000000000000000000000000000000000000000000000001000000000000000000000000000000000000000000000000000000000002000000000000020000000000000000000000000000000000000000020000000000000000000000000000000000800000000000000000000000000000800000000000000000000000000000000000000000000000000000000000000000001000000000000000020000000000000000000000000000000000",
      "type": "0x2",
      "transactionHash": "0x3912559cf686f579ce72f14523323d3c0a0e6c06a34a074fbe29b802d556e71e",
      "transactionIndex": "0x72",
      "blockHash": "0xbd2b140c3fd9b1d0c0eadf7078dc769e9335ea6bb3e1b22349e2d12f6db11a81",
      "blockNumber": "0x27eb66f",
      "gasUsed": "0xb9ec",
      "effectiveGasPrice": "0x39fe67",
      "blobGasUsed": "0x364c",
      "from": "0x493c17e3fbad6667b70105ceb90b9225c29c1235",
      "to": "0xccfaf7e2c4c46064af5df6db6a22a377a2d10188",
      "contractAddress": null,
      "daFootprintGasScalar": "0x8b",
      "l1BaseFeeScalar": "0x8dd",
      "l1BlobBaseFee": "0x3eee88",
      "l1BlobBaseFeeScalar": "0x101c12",
      "l1Fee": "0x4548607b",
      "l1GasPrice": "0x3de18f3",
      "l1GasUsed": "0x640"
    },
    {
      "status": "0x1",
      "cumulativeGasUsed": "0x1c671c1",
      "logs": [
        {
          "address": "0xccfaf7e2c4c46064af5df6db6a22a377a2d10188",
          "topics": [
            "0x8ea6dd825d4c0cbaa8c5f268c15b1df21173aae98f549a108b836de11d4971d8",
            "0x00000000000000000000000002cb315aa9189604204ffaa61a7fb5c05fd0ca2a"
          ],
          "data": "0x",
          "blockHash": "0x406e64d04d846e1e9ae98667fe7e900358509a8b739ecc2716b79c1d97e029cc",
          "blockNumber": "0x27eb670",
          "blockTimestamp": "0x6987c9c3",
          "transactionHash": "0x3b0e9c132906a807dd4600de09a99ace3c53cb4ab8bb2f67c4ff277e9e22b48c",
          "transactionIndex": "0x6b",
          "logIndex": "0x23d",
          "removed": false
        }
      ],
      "logsBloom": "0x00000000000000004000000000000000000000000000000000000000000000000000000000000000000000000000000000040000000000000000000000000000000000000000000000000000000000000000000000000000000000000000000000000000000000000001000000000000000000000000000000000000000000000000000000000002000000000000000000000000000000000000000000000000000000020000000000000000000000000000000000000000000000000000000000000000800000000000000000000000000000000000000000000000000000000000000000001400000000000000020000000000000000000000000000000000",
      "type": "0x2",
      "transactionHash": "0x3b0e9c132906a807dd4600de09a99ace3c53cb4ab8bb2f67c4ff277e9e22b48c",
      "transactionIndex": "0x6b",
      "blockHash": "0x406e64d04d846e1e9ae98667fe7e900358509a8b739ecc2716b79c1d97e029cc",
      "blockNumber": "0x27eb670",
      "gasUsed": "0xb9ec",
      "effectiveGasPrice": "0x39f377",
      "blobGasUsed": "0x364c",
      "from": "0x493c17e3fbad6667b70105ceb90b9225c29c1235",
      "to": "0xccfaf7e2c4c46064af5df6db6a22a377a2d10188",
      "contractAddress": null,
      "daFootprintGasScalar": "0x8b",
      "l1BaseFeeScalar": "0x8dd",
      "l1BlobBaseFee": "0x3a2de4",
      "l1BlobBaseFeeScalar": "0x101c12",
      "l1Fee": "0x27b0a7ed",
      "l1GasPrice": "0x452d9c7",
      "l1GasUsed": "0x640"
    },
    {
      "status": "0x1",
      "cumulativeGasUsed": "0x2058616",
      "logs": [
        {
          "address": "0x498581ff718922c3f8e6a244956af099b2652b2b",
          "topics": [
            "0xdd466e674ea557f56295e2d0218a125ea4b4f0f6f3307b95f85e6110838d6438",
            "0xc11787fb6630ae93e107e1566778bbf5f9d41d8741b149667bb5d87490496898",
            "0x0000000000000000000000004200000000000000000000000000000000000006",
            "0x000000000000000000000000833589fcd6edb6e08f4c7c32d4f71b54bda02913"
          ],
          "data": "0x0000000000000000000000000000000000000000000000000000000000000bb8000000000000000000000000000000000000000000000000000000000000003c000000000000000000000000ccfaf7e2c4c46064af5df6db6a22a377a2d101880000000000000000000000000000000000000000000346dc5d63886594af4f0efffffffffffffffffffffffffffffffffffffffffffffffffffffffffffcfa40",
          "blockHash": "0x0000000000000000000000000000000000000000000000000000000000000000",
          "blockNumber": "0x27eb671",
          "blockTimestamp": "0x6987c9c5",
          "transactionHash": "0xf5b7840fe19e4b5c81581fee45d25d0fb561c23750806ba5d20694ff365210a2",
          "transactionIndex": "0xa5",
          "logIndex": "0x273",
          "removed": false
        }
      ],
      "logsBloom": "0x00000000000000000000000000000000000000000000000000000000000000000000000000000000000000000000000000000000000000000020000000000000000000010000040000000002000000000000000000000000000000000000000000000000000000000000000000000000010010000000000000000000000000000000000000004008400000000000000000000001000000000000000000200000000000000000000000000000000000000000000000000000000000000000000000000000000004000000000000000000000800000000000000000000000000000000000000000000000000080000000000000400000000000000000000000000",
      "type": "0x2",
      "transactionHash": "0xf5b7840fe19e4b5c81581fee45d25d0fb561c23750806ba5d20694ff365210a2",
      "transactionIndex": "0xa5",
      "blockHash": "0x0000000000000000000000000000000000000000000000000000000000000000",
      "blockNumber": "0x27eb671",
      "gasUsed": "0xcb09",
      "effectiveGasPrice": "0x39ec26",
      "blobGasUsed": "0x4a63",
      "from": "0x493c17e3fbad6667b70105ceb90b9225c29c1235",
      "to": "0x498581ff718922c3f8e6a244956af099b2652b2b",
      "contractAddress": null,
      "daFootprintGasScalar": "0x8b",
      "l1BaseFeeScalar": "0x8dd",
      "l1BlobBaseFee": "0x3a2de4",
      "l1BlobBaseFeeScalar": "0x101c12",
      "l1Fee": "0x2dd8de4d",
      "l1GasPrice": "0x452d9c7",
      "l1GasUsed": "0x894"
    },
    {
      "status": "0x1",
      "cumulativeGasUsed": "0xc9917a",
      "logs": [
        {
          "address": "0x833589fcd6edb6e08f4c7c32d4f71b54bda02913",
          "topics": [
            "0x8c5be1e5ebec7d5bd14f71427d1e84f3dd0314c0f7b2291e5b200ac8c7c3b925",
            "0x0000000000000000000000006a806c5f25b145065befd19bffa6242b3fb3b1e0",
            "0x000000000000000000000000ccfaf7e2c4c46064af5df6db6a22a377a2d10188"
          ],
          "data": "0xffffffffffffffffffffffffffffffffffffffffffffffffffffffffffffffff",
          "blockHash": "0x0000000000000000000000000000000000000000000000000000000000000000",
          "blockNumber": "0x27eb672",
          "blockTimestamp": "0x6987c9c7",
          "transactionHash": "0x68774180734f520d773bbae9ad5c5a738e3fb89178ef70e1b95ee9c782742938",
          "transactionIndex": "0x21",
          "logIndex": "0xe4",
          "removed": false
        }
      ],
      "logsBloom": "0x00000000000000000000000000001000000000000000000000000000000000000000000000000000000000000000100000000000000000000000000000200000000040000000000000000000000000000000000000080000000000000000000000800000000000000000000000000000000000000010000000000000000000000000000000000000000000000000000000000000100000000000000000000000020000000000000000000000000000000000000002000000000000000000000000000000000000000000000000000000000000000000000000000000000000000010000000000000002000000000000000000000000000000000000000000000",
      "type": "0x2",
      "transactionHash": "0x68774180734f520d773bbae9ad5c5a738e3fb89178ef70e1b95ee9c782742938",
      "transactionIndex": "0x21",
      "blockHash": "0x0000000000000000000000000000000000000000000000000000000000000000",
      "blockNumber": "0x27eb672",
      "gasUsed": "0xd9e9",
      "effectiveGasPrice": "0x39e998",
      "blobGasUsed": "0x364c",
      "from": "0x6a806c5f25b145065befd19bffa6242b3fb3b1e0",
      "to": "0x833589fcd6edb6e08f4c7c32d4f71b54bda02913",
      "contractAddress": null,
      "daFootprintGasScalar": "0x8b",
      "l1BaseFeeScalar": "0x8dd",
      "l1BlobBaseFee": "0x3a2de4",
      "l1BlobBaseFeeScalar": "0x101c12",
      "l1Fee": "0x37ceaf5b",
      "l1GasPrice": "0x452d9c7",
      "l1GasUsed": "0x640"
    },
    {
      "status": "0x1",
      "cumulativeGasUsed": "0x2950180",
      "logs": [
        {
          "address": "0x833589fcd6edb6e08f4c7c32d4f71b54bda02913",
          "topics": [
            "0xddf252ad1be2c89b69c2b068fc378daa952ba7f163c4a11628f55a4df523b3ef",
            "0x0000000000000000000000006a806c5f25b145065befd19bffa6242b3fb3b1e0",
            "0x000000000000000000000000ccfaf7e2c4c46064af5df6db6a22a377a2d10188"
          ],
          "data": "0x00000000000000000000000000000000000000000000000000000000004c4b40",
          "blockHash": "0x11b964f8e514f43619b81fe539a06e962703fa30118e07fe307415b5b3f94e4b",
          "blockNumber": "0x27eb673",
          "blockTimestamp": "0x6987c9c9",
          "transactionHash": "0x0b11d92da0385b424d599eea41bc6d38f1830ec617d79817a01bcaf649c5afe8",
          "transactionIndex": "0x9c",
          "logIndex": "0x368",
          "removed": false
        },
        {
          "address": "0xccfaf7e2c4c46064af5df6db6a22a377a2d10188",
          "topics": [
            "0x5e1ce8a11317a0c1fa41ce76773718ec308f356d44eac16f8b070a74fcf7676f",
            "0x0000000000000000000000000000000000000000000000000000000000000000",
            "0x0000000000000000000000006a806c5f25b145065befd19bffa6242b3fb3b1e0"
          ],
          "data": "0x000000000000000000000000000000000000000000000000000000000000000000000000000000000000000000000000000000000000000000000000004c4b4000000000000000000000000000000000000000000000000000038d7ea4c68000000000000000000000000000000000000000000000000000000000006987d7d9",
          "blockHash": "0x11b964f8e514f43619b81fe539a06e962703fa30118e07fe307415b5b3f94e4b",
          "blockNumber": "0x27eb673",
          "blockTimestamp": "0x6987c9c9",
          "transactionHash": "0x0b11d92da0385b424d599eea41bc6d38f1830ec617d79817a01bcaf649c5afe8",
          "transactionIndex": "0x9c",
          "logIndex": "0x369",
          "removed": false
        }
      ],
      "logsBloom": "0x00000000000000000001000000001000000000000000000000000000000000000000000000000000000000000000100000000000000000000000000000000000000040000000000000000008000000000000000000080000000000000000000000800000020000000000000000000800000000000010000000000010000000000000000000000000000000000000000000000002100000000000000000000000000000020000000000000000000000000000000002000000000000000000000000000002200000000000000000000000000000000000000000000000000020000000000000001000002000000000020000000000000000000000000000000000",
      "type": "0x2",
      "transactionHash": "0x0b11d92da0385b424d599eea41bc6d38f1830ec617d79817a01bcaf649c5afe8",
      "transactionIndex": "0x9c",
      "blockHash": "0x11b964f8e514f43619b81fe539a06e962703fa30118e07fe307415b5b3f94e4b",
      "blockNumber": "0x27eb673",
      "gasUsed": "0x39c8e",
      "effectiveGasPrice": "0x39eaa0",
      "blobGasUsed": "0x4721",
      "from": "0x6a806c5f25b145065befd19bffa6242b3fb3b1e0",
      "to": "0xccfaf7e2c4c46064af5df6db6a22a377a2d10188",
      "contractAddress": null,
      "daFootprintGasScalar": "0x8b",
      "l1BaseFeeScalar": "0x8dd",
      "l1BlobBaseFee": "0x3a2de4",
      "l1BlobBaseFeeScalar": "0x101c12",
      "l1Fee": "0x27b0a7ed",
      "l1GasPrice": "0x452d9c7",
      "l1GasUsed": "0x836"
    },
    {
      "status": "0x1",
      "cumulativeGasUsed": "0x7700a7",
      "logs": [
        {
          "address": "0x4200000000000000000000000000000000000006",
          "topics": [
            "0xe1fffcc4923d04b559f4d29a8bfc6cda04eb5b0d3c460751c2402c5c5cc9109c",
            "0x000000000000000000000000bc8cb435479ed1ea8aca81eac268ef46f8f30b01"
          ],
          "data": "0x0000000000000000000000000000000000000000000000000011c37937e08000",
          "blockHash": "0x0000000000000000000000000000000000000000000000000000000000000000",
          "blockNumber": "0x27eb675",
          "blockTimestamp": "0x6987c9cd",
          "transactionHash": "0x93ea38f4b8bdad66df7b0b3bdabc5a86a37118166b179304a67f9dc8aa7ef86e",
          "transactionIndex": "0x16",
          "logIndex": "0xbd",
          "removed": false
        }
      ],
      "logsBloom": "0x00000000000000000000000000000000000000000000000000040000000000000000000000000000000000100000000000000000000000000000000000000000004000000000000000000000000000000000000000000000000000008000000000000000000000000000000000000000000000000000000000000000000000000000000000000000000000000000020000000001002000000000000000000000000000000000000000000000000000000000000000800000000000000000000000000000000000000000000000000000000000000000000000000000000000000000000000000000000000000000000000000000000000400000000000000000",
      "type": "0x2",
      "transactionHash": "0x93ea38f4b8bdad66df7b0b3bdabc5a86a37118166b179304a67f9dc8aa7ef86e",
      "transactionIndex": "0x16",
      "blockHash": "0x0000000000000000000000000000000000000000000000000000000000000000",
      "blockNumber": "0x27eb675",
      "gasUsed": "0xaf42",
      "effectiveGasPrice": "0x39e376",
      "blobGasUsed": "0x364c",
      "from": "0xbc8cb435479ed1ea8aca81eac268ef46f8f30b01",
      "to": "0x4200000000000000000000000000000000000006",
      "contractAddress": null,
      "daFootprintGasScalar": "0x8b",
      "l1BaseFeeScalar": "0x8dd",
      "l1BlobBaseFee": "0x3a2de4",
      "l1BlobBaseFeeScalar": "0x101c12",
      "l1Fee": "0x2f2cd80b",
      "l1GasPrice": "0x452d9c7",
      "l1GasUsed": "0x640"
    },
    {
      "status": "0x1",
      "cumulativeGasUsed": "0x2fb0df5",
      "logs": [
        {
          "address": "0x4200000000000000000000000000000000000006",
          "topics": [
            "0x8c5be1e5ebec7d5bd14f71427d1e84f3dd0314c0f7b2291e5b200ac8c7c3b925",
            "0x000000000000000000000000bc8cb435479ed1ea8aca81eac268ef46f8f30b01",
            "0x00000000000000000000000002cb315aa9189604204ffaa61a7fb5c05fd0ca2a"
          ],
          "data": "0xffffffffffffffffffffffffffffffffffffffffffffffffffffffffffffffff",
          "blockHash": "0x0000000000000000000000000000000000000000000000000000000000000000",
          "blockNumber": "0x27eb676",
          "blockTimestamp": "0x6987c9cf",
          "transactionHash": "0xaaa1918fcdf4319fa36daabecb2c4ead8c4ea435b3528ac6030330b3ab3d9ff5",
          "transactionIndex": "0xa4",
          "logIndex": "0x381",
          "removed": false
        }
      ],
      "logsBloom": "0x00000000000000004000000000000000000000000000000000040000000000000000000000000000000000100000000000040000000000000000000000200000004000000000000000000000000000000000000000000000000000000000000000000000000000000000000000000000000000000000000000000000000000000000000000000000000000000000020000000000002000000000000000000000020000000000000000000000000000000000000000800000000000000000000000000000000000000000000000000000000000000000000000000000000000000010000000000400000000000000000000000000000000000000000000000000",
      "type": "0x2",
      "transactionHash": "0xaaa1918fcdf4319fa36daabecb2c4ead8c4ea435b3528ac6030330b3ab3d9ff5",
      "transactionIndex": "0xa4",
      "blockHash": "0x0000000000000000000000000000000000000000000000000000000000000000",
      "blockNumber": "0x27eb676",
      "gasUsed": "0xb507",
      "effectiveGasPrice": "0x39d7a2",
      "blobGasUsed": "0x364c",
      "from": "0xbc8cb435479ed1ea8aca81eac268ef46f8f30b01",
      "to": "0x4200000000000000000000000000000000000006",
      "contractAddress": null,
      "daFootprintGasScalar": "0x8b",
      "l1BaseFeeScalar": "0x8dd",
      "l1BlobBaseFee": "0x3bb8df",
      "l1BlobBaseFeeScalar": "0x101c12",
      "l1Fee": "0x2a495b9a",
      "l1GasPrice": "0x4dd132c",
      "l1GasUsed": "0x640"
    },
    {
      "status": "0x1",
      "cumulativeGasUsed": "0x2e28909",
      "logs": [
        {
          "address": "0x4200000000000000000000000000000000000006",
          "topics": [
            "0xddf252ad1be2c89b69c2b068fc378daa952ba7f163c4a11628f55a4df523b3ef",
            "0x000000000000000000000000498581ff718922c3f8e6a244956af099b2652b2b",
            "0x0000000000000000000000006a806c5f25b145065befd19bffa6242b3fb3b1e0"
          ],
          "data": "0x00000000000000000000000000000000000000000000000000071afd498d0000",
          "blockHash": "0xf36da3a6ad494d27e564014bb8f56b057882aa90a97781def85dab368f81c048",
          "blockNumber": "0x27eb677",
          "blockTimestamp": "0x6987c9d1",
          "transactionHash": "0x1dc3ae3a57996c922bfd097595dbeeb2245518cf4cf3c17b6d89ac69667d0739",
          "transactionIndex": "0x94",
          "logIndex": "0x285",
          "removed": false
        },
        {
          "address": "0x833589fcd6edb6e08f4c7c32d4f71b54bda02913",
          "topics": [
            "0xddf252ad1be2c89b69c2b068fc378daa952ba7f163c4a11628f55a4df523b3ef",
            "0x000000000000000000000000ccfaf7e2c4c46064af5df6db6a22a377a2d10188",
            "0x000000000000000000000000498581ff718922c3f8e6a244956af099b2652b2b"
          ],
          "data": "0x00000000000000000000000000000000000000000000000000000000004c4b40",
          "blockHash": "0xf36da3a6ad494d27e564014bb8f56b057882aa90a97781def85dab368f81c048",
          "blockNumber": "0x27eb677",
          "blockTimestamp": "0x6987c9d1",
          "transactionHash": "0x1dc3ae3a57996c922bfd097595dbeeb2245518cf4cf3c17b6d89ac69667d0739",
          "transactionIndex": "0x94",
          "logIndex": "0x286",
          "removed": false
        },
        {
          "address": "0xccfaf7e2c4c46064af5df6db6a22a377a2d10188",
          "topics": [
            "0x7c43b58d92e64f9327cc3b37350627923cd1dd5d52d657889744eaf11085340a",
            "0x0000000000000000000000000000000000000000000000000000000000000000",
            "0x0000000000000000000000006a806c5f25b145065befd19bffa6242b3fb3b1e0",
            "0x00000000000000000000000002cb315aa9189604204ffaa61a7fb5c05fd0ca2a"
          ],
          "data": "0x0000000000000000000000004200000000000000000000000000000000000006000000000000000000000000833589fcd6edb6e08f4c7c32d4f71b54bda0291300000000000000000000000000000000000000000000000000071afd498d000000000000000000000000000000000000000000000000000000000000004c4b40",
          "blockHash": "0xf36da3a6ad494d27e564014bb8f56b057882aa90a97781def85dab368f81c048",
          "blockNumber": "0x27eb677",
          "blockTimestamp": "0x6987c9d1",
          "transactionHash": "0x1dc3ae3a57996c922bfd097595dbeeb2245518cf4cf3c17b6d89ac69667d0739",
          "transactionIndex": "0x94",
          "logIndex": "0x287",
          "removed": false
        },
        {
          "address": "0x498581ff718922c3f8e6a244956af099b2652b2b",
          "topics": [
            "0x40e9cecb9f5f1f1c5b9c97dec2917b7ee92e57ba5563708daca94dd84ad7112f",
            "0xc11787fb6630ae93e107e1566778bbf5f9d41d8741b149667bb5d87490496898",
            "0x00000000000000000000000002cb315aa9189604204ffaa61a7fb5c05fd0ca2a"
          ],
          "data": "0x000000000000000000000000000000000000000000000000000000000000000000000000000000000000000000000000000000000000000000000000000000000000000000000000000000000000000000000000000346dc5d63886594af4f0e0000000000000000000000000000000000000000000000000000000000000000fffffffffffffffffffffffffffffffffffffffffffffffffffffffffffcfa400000000000000000000000000000000000000000000000000000000000000bb8",
          "blockHash": "0xf36da3a6ad494d27e564014bb8f56b057882aa90a97781def85dab368f81c048",
          "blockNumber": "0x27eb677",
          "blockTimestamp": "0x6987c9d1",
          "transactionHash": "0x1dc3ae3a57996c922bfd097595dbeeb2245518cf4cf3c17b6d89ac69667d0739",
          "transactionIndex": "0x94",
          "logIndex": "0x288",
          "removed": false
        },
        {
          "address": "0x4200000000000000000000000000000000000006",
          "topics": [
            "0xddf252ad1be2c89b69c2b068fc378daa952ba7f163c4a11628f55a4df523b3ef",
            "0x000000000000000000000000bc8cb435479ed1ea8aca81eac268ef46f8f30b01",
            "0x000000000000000000000000498581ff718922c3f8e6a244956af099b2652b2b"
          ],
          "data": "0x00000000000000000000000000000000000000000000000000071afd498d0000",
          "blockHash": "0xf36da3a6ad494d27e564014bb8f56b057882aa90a97781def85dab368f81c048",
          "blockNumber": "0x27eb677",
          "blockTimestamp": "0x6987c9d1",
          "transactionHash": "0x1dc3ae3a57996c922bfd097595dbeeb2245518cf4cf3c17b6d89ac69667d0739",
          "transactionIndex": "0x94",
          "logIndex": "0x289",
          "removed": false
        },
        {
          "address": "0x833589fcd6edb6e08f4c7c32d4f71b54bda02913",
          "topics": [
            "0xddf252ad1be2c89b69c2b068fc378daa952ba7f163c4a11628f55a4df523b3ef",
            "0x000000000000000000000000498581ff718922c3f8e6a244956af099b2652b2b",
            "0x000000000000000000000000bc8cb435479ed1ea8aca81eac268ef46f8f30b01"
          ],
          "data": "0x00000000000000000000000000000000000000000000000000000000004c4b40",
          "blockHash": "0xf36da3a6ad494d27e564014bb8f56b057882aa90a97781def85dab368f81c048",
          "blockNumber": "0x27eb677",
          "blockTimestamp": "0x6987c9d1",
          "transactionHash": "0x1dc3ae3a57996c922bfd097595dbeeb2245518cf4cf3c17b6d89ac69667d0739",
          "transactionIndex": "0x94",
          "logIndex": "0x28a",
          "removed": false
        }
      ],
      "logsBloom": "0x0000000000000000400000000000100000000000000000000004000000000000002000000000000000000110000010000004000004000000000000000000000000404001080000000000000a000000000000000000080020000000000000000000800000020000000000000000000800000000000010000000000010000000000000000000004000000000000000020000000000102000000000000400000000004000020000000000000000000000000000000002800000000000000000000000000002000000000000000000000000000800000000010000000000000020000000000000001400006000080000020000000400000000000000000000000000",
      "type": "0x2",
      "transactionHash": "0x1dc3ae3a57996c922bfd097595dbeeb2245518cf4cf3c17b6d89ac69667d0739",
      "transactionIndex": "0x94",
      "blockHash": "0xf36da3a6ad494d27e564014bb8f56b057882aa90a97781def85dab368f81c048",
      "blockNumber": "0x27eb677",
      "gasUsed": "0x2a8b0",
      "effectiveGasPrice": "0x39cfdf",
      "blobGasUsed": "0x4fd1",
      "from": "0xbc8cb435479ed1ea8aca81eac268ef46f8f30b01",
      "to": "0x02cb315aa9189604204ffaa61a7fb5c05fd0ca2a",
      "contractAddress": null,
      "daFootprintGasScalar": "0x8b",
      "l1BaseFeeScalar": "0x8dd",
      "l1BlobBaseFee": "0x3bb8df",
      "l1BlobBaseFeeScalar": "0x101c12",
      "l1Fee": "0x2a495b9a",
      "l1GasPrice": "0x4dd132c",
      "l1GasUsed": "0x934"
    }
  ],
  "libraries": [],
  "pending": [],
  "returns": {},
  "timestamp": 1770506704701,
  "chain": 8453,
  "commit": "5633166"
}